{
    "_format": "hh-sol-artifact-1",
    "contractName": "SongPortal",
    "sourceName": "contracts/SongPortal.sol",
    "abi": [
        {
            "inputs": [],
            "stateMutability": "nonpayable",
            "type": "constructor"
        },
        {
            "inputs": [
                {
                    "internalType": "string",
                    "name": "song",
                    "type": "string"
                }
            ],
            "name": "addNewSong",
            "outputs": [],
            "stateMutability": "nonpayable",
            "type": "function"
        },
        {
            "inputs": [],
            "name": "getAllSongs",
            "outputs": [
                {
                    "internalType": "uint256",
                    "name": "",
                    "type": "uint256"
                },
                {
                    "internalType": "string[]",
                    "name": "",
                    "type": "string[]"
                }
            ],
            "stateMutability": "view",
            "type": "function"
        }
    ],
    "bytecode": "0x60806040523480156200001157600080fd5b506200004160405180606001604052806025815260200162000ce6602591396200004760201b620003561760201c565b620001db565b620000e7816040516024016200005e919062000154565b6040516020818303038152906040527f41304fac000000000000000000000000000000000000000000000000000000007bffffffffffffffffffffffffffffffffffffffffffffffffffffffff19166020820180517bffffffffffffffffffffffffffffffffffffffffffffffffffffffff8381831617835250505050620000ea60201b60201c565b50565b60008151905060006a636f6e736f6c652e6c6f679050602083016000808483855afa5050505050565b6000620001208262000178565b6200012c818562000183565b93506200013e81856020860162000194565b6200014981620001ca565b840191505092915050565b6000602082019050818103600083015262000170818462000113565b905092915050565b600081519050919050565b600082825260208201905092915050565b60005b83811015620001b457808201518184015260208101905062000197565b83811115620001c4576000848401525b50505050565b6000601f19601f8301169050919050565b610afb80620001eb6000396000f3fe608060405234801561001057600080fd5b50600436106100365760003560e01c806329ef68621461003b578063c6caeecc1461005a575b600080fd5b610043610076565b604051610051929190610837565b60405180910390f35b610074600480360381019061006f919061065b565b6102d8565b005b600060606100be6040518060400160405280601781526020017f5765206861766520256420746f74616c20736f6e6773210000000000000000008152506000805490506103ef565b6100fc6040518060400160405280601381526020017f48657265206172652074686520736f6e67733a00000000000000000000000000815250610356565b60005b6000805490508110156101f4576101e160008281548110610149577f4e487b7100000000000000000000000000000000000000000000000000000000600052603260045260246000fd5b90600052602060002001805461015e906109ac565b80601f016020809104026020016040519081016040528092919081815260200182805461018a906109ac565b80156101d75780601f106101ac576101008083540402835291602001916101d7565b820191906000526020600020905b8154815290600101906020018083116101ba57829003601f168201915b5050505050610356565b80806101ec906109de565b9150506100ff565b50600080549050600080805480602002602001604051908101604052809291908181526020016000905b828210156102ca57838290600052602060002001805461023d906109ac565b80601f0160208091040260200160405190810160405280929190818152602001828054610269906109ac565b80156102b65780601f1061028b576101008083540402835291602001916102b6565b820191906000526020600020905b81548152906001019060200180831161029957829003601f168201915b50505050508152602001906001019061021e565b505050509050915091509091565b600081908060018154018082558091505060019003906000526020600020016000909190919091509080519060200190610313929190610550565b506103536040518060400160405280601881526020017f2573206861732061646465642061206e657720736f6e672100000000000000008152503361048b565b50565b6103ec8160405160240161036a91906107b5565b6040516020818303038152906040527f41304fac000000000000000000000000000000000000000000000000000000007bffffffffffffffffffffffffffffffffffffffffffffffffffffffff19166020820180517bffffffffffffffffffffffffffffffffffffffffffffffffffffffff8381831617835250505050610527565b50565b6104878282604051602401610405929190610807565b6040516020818303038152906040527f9710a9d0000000000000000000000000000000000000000000000000000000007bffffffffffffffffffffffffffffffffffffffffffffffffffffffff19166020820180517bffffffffffffffffffffffffffffffffffffffffffffffffffffffff8381831617835250505050610527565b5050565b61052382826040516024016104a19291906107d7565b6040516020818303038152906040527f319af333000000000000000000000000000000000000000000000000000000007bffffffffffffffffffffffffffffffffffffffffffffffffffffffff19166020820180517bffffffffffffffffffffffffffffffffffffffffffffffffffffffff8381831617835250505050610527565b5050565b60008151905060006a636f6e736f6c652e6c6f679050602083016000808483855afa5050505050565b82805461055c906109ac565b90600052602060002090601f01602090048101928261057e57600085556105c5565b82601f1061059757805160ff19168380011785556105c5565b828001600101855582156105c5579182015b828111156105c45782518255916020019190600101906105a9565b5b5090506105d291906105d6565b5090565b5b808211156105ef5760008160009055506001016105d7565b5090565b600061060661060184610898565b610867565b90508281526020810184848401111561061e57600080fd5b61062984828561096a565b509392505050565b600082601f83011261064257600080fd5b81356106528482602086016105f3565b91505092915050565b60006020828403121561066d57600080fd5b600082013567ffffffffffffffff81111561068757600080fd5b61069384828501610631565b91505092915050565b60006106a88383610734565b905092915050565b6106b98161092e565b82525050565b60006106ca826108d8565b6106d481856108fb565b9350836020820285016106e6856108c8565b8060005b858110156107225784840389528151610703858261069c565b945061070e836108ee565b925060208a019950506001810190506106ea565b50829750879550505050505092915050565b600061073f826108e3565b610749818561090c565b9350610759818560208601610979565b61076281610ab4565b840191505092915050565b6000610778826108e3565b610782818561091d565b9350610792818560208601610979565b61079b81610ab4565b840191505092915050565b6107af81610960565b82525050565b600060208201905081810360008301526107cf818461076d565b905092915050565b600060408201905081810360008301526107f1818561076d565b905061080060208301846106b0565b9392505050565b60006040820190508181036000830152610821818561076d565b905061083060208301846107a6565b9392505050565b600060408201905061084c60008301856107a6565b818103602083015261085e81846106bf565b90509392505050565b6000604051905081810181811067ffffffffffffffff8211171561088e5761088d610a85565b5b8060405250919050565b600067ffffffffffffffff8211156108b3576108b2610a85565b5b601f19601f8301169050602081019050919050565b6000819050602082019050919050565b600081519050919050565b600081519050919050565b6000602082019050919050565b600082825260208201905092915050565b600082825260208201905092915050565b600082825260208201905092915050565b600061093982610940565b9050919050565b600073ffffffffffffffffffffffffffffffffffffffff82169050919050565b6000819050919050565b82818337600083830152505050565b60005b8381101561099757808201518184015260208101905061097c565b838111156109a6576000848401525b50505050565b600060028204905060018216806109c457607f821691505b602082108114156109d8576109d7610a56565b5b50919050565b60006109e982610960565b91507fffffffffffffffffffffffffffffffffffffffffffffffffffffffffffffffff821415610a1c57610a1b610a27565b5b600182019050919050565b7f4e487b7100000000000000000000000000000000000000000000000000000000600052601160045260246000fd5b7f4e487b7100000000000000000000000000000000000000000000000000000000600052602260045260246000fd5b7f4e487b7100000000000000000000000000000000000000000000000000000000600052604160045260246000fd5b6000601f19601f830116905091905056fea2646970667358221220772df6b155066265f9061eb85a6de97f731dad1cb5cb988adef1a52de6c108e464736f6c63430008000033596f20796f2c204920616d206120636f6e747261637420616e64204920616d20736d617274",
    "linkReferences": {},
    "deployedLinkReferences": {}
}